:020000040800F2
:1000000038420020F58A0008490400084B04000823
:100010004F040008530400085704000800000000C3
:100020000000000000000000000000005B04000869
:100030005D040008000000003755010871B6000893
:100040000F8B00080F8B00080F8B00080F8B000828
:100050000F8B00080F8B00080F8B00080F8B000818
:100060000F8B00080F8B00080F8B00080F8B000808
:100070000F8B00080F8B00080F8B00080F8B0008F8
:100080000F8B00080F8B00080F8B00080F8B0008E8
:100090000F8B00080F8B00080F8B00080F8B0008D8
:1000A0000F8B00080F8B00080F8B00080F8B0008C8
:1000B0000F8B00080F8B00080F8B00080F8B0008B8
:1000C0000F8B00080F8B00080F8B00080F8B0008A8
:1000D0000F8B000867B800080F8B00080F8B000813
:1000E0006D6B00080F8B00080F8B00080F8B00084A
:1000F0000F8B00080F8B00080F8B00080F8B000878
:100100000F8B00080F8B00080F8B00080F8B000867
:100110000F8B00080F8B00080F8B00080F8B000857
:100120000F8B00080F8B00080F8B00080F8B000847
:100130000F8B00080F8B00080F8B00080F8B000837
:100140000F8B00080F8B00080F8B00080F8B000827
:100150000F8B00080F8B00080F8B00080F8B000817
:100160000F8B00080F8B00080F8B00080F8B000807
:100170000F8B00080F8B00080F8B00080F8B0008F7
:100180000F8B00080F8B000800F002F800F066F8F3
:100190000AA090E8000C82448344AAF10107DA45E2
:1001A00001D100F05BF8AFF2090EBAE80F0013F0CE
:1001B000010F18BFFB1A43F001031847FC7A010036
:1001C0001C7B01000A444FF0000C10F8013B13F0B7
:1001D000070408BF10F8014B1D1108BF10F8015BA0
:1001E000641E05D010F8016B641E01F8016BF9D193
:1001F00013F0080F1EBF10F8014BAD1C0C1B09D1EA
:100200006D1E58BF01F801CBFAD505E014F8016B5B
:1002100001F8016B6D1EF9D59142D6D370470000ED
:100220000023002400250026103A28BF78C1FBD8FF
:10023000520728BF30C148BF0B607047642914F0D3
:100240004987782914F08287002070471FB515F080
:10025000A0FE15F073F81FBD10B510BD15F022F902
:100260001146FFF7F3FF00F075F815F040F903B4FD
:10027000FFF7F2FF03BC0BF093FA000038B5044619
:10028000002500BF0BF09AFB684611F0D1FA6A46D0
:10029000012108460DF05CFB00BF00BF00BF0BF062
:1002A000C5FC054600BF00BF60480078401C5F49A0
:1002B000087000BF00BF28460BF0BCFC00BF00BFA9
:1002C00000BF532140F2E73005F090FF00F0D0FD71
:1002D000009000F0DCFA009000F0D2FB009000F0FB
:1002E000EFFC009000F0FCFD009000F015FC009089
:1002F00069464F4813F0E5F900BF00BF00BF0BF09F
:1003000095FC054600BF00BF48480078401E47499D
:10031000087008460078A0B946480088002809DD22
:1003200000BF00BF28460BF085FC00BF00BF0DF0EA
:10033000F8FE0DE000BF00BF28460BF07BFC00BFBD
:1003400006E000BF00BF28460BF074FC00BF00BFF2
:1003500000BF38BD8AB00024A8200BF095F94FF4F7
:10036000A06008F0E7FB09A80DF0FAF800BF00BF95
:1003700000BF0BF05BFC044600BF00BF2B480078B9
:10038000401C2A49087000BF00BF20460BF052FCF9
:1003900000BF00BF00BF09A8032100220592CDE9DC
:1003A00006210890104680210C22234BCDE9013212
:1003B000CDE9031003200023AFF23F121FA10090EC
:1003C0001B4811F009FE00BF00BF00BF0BF02EFC60
:1003D000044600BF00BF15480078401E134908704E
:1003E00008460078A0B913480088002809DD00BF3E
:1003F00000BF20460BF01EFC00BF00BF0DF091FEB9
:100400000DE000BF00BF20460BF014FC00BF06E06B
:1004100000BF00BF20460BF00DFC00BF00BF00BFB7
:1004200009A80DF035FB00BFFEE700005E010020CB
:10043000C00100203001002080020020737461722E
:1004400074207461736B0000704700BFFEE700BF4B
:10045000FEE700BFFEE700BFFEE770477047000001
:100460000CB50020019000907648006840F4803080
:100470007449086000BF7348006800F400300090C1
:100480000198401C0190009818B90198B0F5A04F50
:10049000F1D16C48006800F4003010B101200090E8
:1004A00001E0002000900098012846D165484030C6
:1004B000006840F08050634940310860624800683D
:1004C00040F44040604908605E48083000685D497B
:1004D000083108600846006840F40040086008469B
:1004E000006840F4A05008605848091F0860081FC1
:1004F000006840F08070091F086000BF5148006824
:1005000000F000700028F9D040F2057050490860F2
:100510004C480830006820F003004A490831086060
:100520000846006840F00200086000BF45480830F7
:10053000006800F00C000828F8D10CBD10B5454843
:10054000006840F47000434908603E48006840F08D
:1005500001003C49086000203A49083108603948E8
:1005600000683D490840374908603C48091D08605B
:10057000081F006820F48020091F0860002031490E
:100580000C310860FFF76CFF4FF000603149803993
:10059000086010BD70B50020002202230024022153
:1005A000284D08352D6805F00C0020B1042806D030
:1005B000082834D107E02A4D2A4E356033E02A4D11
:1005C000284E35602FE01F4D2D1D2D68C5F380543A
:1005D0001C4D2D1D2D6805F03F0154B1224DB5FB7A
:1005E000F1F5184E361D3668C6F3881605FB06F27F
:1005F00009E01B4DB5FBF1F5124E361D3668C6F30A
:10060000881605FB06F20F4D2D1D2D68C5F301451B
:100610006D1C6B00B2FBF3F5124E356003E0104D1C
:10062000104E356000BF00BF064D08352D68C5F37C
:1006300003150E4E705D0B4D2D68C540094E35609B
:1006400070BD0000003802400070004008544007B0
:10065000003C024088ED00E0FFFFF6FE1030002471
:100660000024F4000000002000127A0004000020A2
:100670000EB50024002500F025FD064605F064FFB8
:1006800004E10B2005F0A3FF904908800A2005F043
:100690009EFF8E494880092005F099FF8B4988808C
:1006A000082005F094FF8949C88008464088062143
:1006B00090FBF1F0864948808449C988A1F5FE6025
:1006C000C11700EB11710911814A91807F49898816
:1006D000A1F2E370C11700EB11710911D18010462E
:1006E0004088642809DD79490988A1F61400C117FA
:1006F00000EB11710911118102E000207449088199
:100700007348B0F904000A2806DB714880880A386B
:1007100000B26F4988800FE06D48B0F9040010F115
:100720000A0F06DC6A4880880A3000B2684988806F
:1007300002E00020664988806548B0F906000A2872
:1007400006DB6348C0880A3800B26149C8800FE000
:100750005F48B0F9060010F10A0F06DC5C48C0885B
:100760000A3000B25A49C88002E000205849C880C7
:100770005748B0F908000A2806DB554800890A38AE
:1007800000B2534908810FE05148B0F9080010F158
:100790000A0F06DC4E4800890A3000B24C49088135
:1007A00002E000204A4908814948B0F906007D2846
:1007B00003DB7D204649C88009E04548B0F90600C2
:1007C00010F17D0F03DC6FF07C004149C880404888
:1007D000B0F908007D2803DB7D203D49088109E050
:1007E0003B48B0F9080010F17D0F03DC6FF07C008E
:1007F000374908813648B0F904007D2803DB7D20A5
:100800003349888009E03248B0F9040010F17D0FC7
:1008100003DC6FF07C002E4988802C484088192822
:1008200010DA2A480088B0F5616F0BDD601CC4B295
:10083000642C08DD012026490870A02402202549E7
:10084000087000E0002421484088192810DA1F4869
:100850000088B0F5E17F0BDA681CC5B20F2D08DD0A
:1008600002201B490870A02501201A49087000E0E9
:100870000025684600F05CFA08226946304600F020
:1008800031FC02AA0821022013F0BCFAF9E600B5F7
:100890008BB00AA8032100220592CDE90621089019
:1008A00010464FF4807119220B4BCDE90132CDE98E
:1008B000031004200023AFF2472208A100900A4849
:1008C00011F08AFBBDF828000BB000BD1400002019
:1008D0008015002025000020400500205461736B26
:1008E00032206164630000008004002088B04FF073
:1008F000000801F020FC05F046FCC821C8060AF0FB
:10090000F2FA00BF00BF00BF0BF090F9804600BFB5
:1009100000BF6A480078401C6849087000BF00BFEB
:1009200040460BF087F900BF00BF00BF644908686C
:10093000804700BF00BF00BF0BF078F9804600BFC2
:1009400000BF5E480078401E5C4908700846007889
:10095000A0B95C480088002809DD00BF00BF404600
:100960000BF068F900BF00BF0DF0DBFB0DE000BF2E
:1009700000BF40460BF05EF900BF06E000BF00BFBD
:1009800040460BF057F900BF00BF00BF4FF478405E
:100990004D49088000204D49088000246FE04C48F4
:1009A000078805F0AFFD3A464AA102A814F056FBAD
:1009B00002A818210B46A822CDE90010F021002042
:1009C00005F0F7FA3E4841680020884744A102A894
:1009D00014F044FB02A818211E2340F2DF12CDE9D7
:1009E0000010032140F29F1005F0E3FA05F099FD95
:1009F00037490880324890F8200000F0800090B31A
:100A0000601CC4B2022C00DD02244FF6FF702F4997
:100A100008802B4AD18A90894FF6FF7201F07EF848
:100A2000022C06D12648C38A82893146284605F021
:100A3000B3F823488589C68A8089B0F5CD7F06DD65
:100A40001F48C08A1E2802DA002001F042FB1C4821
:100A50008089B0F5DC7F08DD1948C18A4FF08040FD
:100A60000AF041FA01E0FFE7002407A80821192352
:100A70000022CDE900101146104613F048FA8EE727
:100A800000B58BB00AA8032100220592CDE906210A
:100A90000890104680210C22134BCDE90132CDE99C
:100AA000031009200023AFF2BB1210A100901248DE
:100AB00011F092FABDF828000BB000BD5E010020D5
:100AC000A0000020300100209600002094000020AB
:100AD0009800002070725F74693A25386400000045
:100AE000436C656172000000000A00205461736B62
:100AF00033206C63640000004009002005F0FEFF15
:100B000000F0E0FA04461449204600F000FB02E041
:100B1000204600F00CFBFBE700B58BB00AA80321D0
:100B200000220592CDE90621089010464FF480710D
:100B300019220A4BCDE90132CDE90310052000232B
:100B4000AFF2470206A10090034811F045FABDF844
:100B500028000BB000BD0000000C0020C00C0020DD
:100B60005461736B33204E524632343031000000F2
:100B700010B504466088411E61480AF00DF860888F
:100B800000EE100AB8EE400AD4ED020A20EE200A68
:100B9000BCEEC00A10EE101A59480AF0A0F910BDB8
:100BA00070B52DED028B04460D46B0EE408AA5804F
:100BB000A0884004000C608084ED028A2046FFF784
:100BC000D7FFBDEC028B70BD2DE9FE4307460D46F5
:100BD00016469846DDF82890002416E006EB8400BF
:100BE000D0ED000AB0EE600A35F814103846FFF771
:100BF000D7FF02A8082143460022CDE90010114684
:100C0000104613F084F9601CC4B24C45E6DB9FED3E
:100C10003D0A4FF47A713846FFF7C2FFBDE8FE8304
:100C200010B50446532140F2E73005F0FDFA4FF4C9
:100C30007A706080204610BD88B004A8FFF7F0FFEE
:100C400002A800F075F9042064232F4A2F49009070
:100C500004A8FFF7B9FF32E02D480078012809D138
:100C600007A8082100230122CDE9001019461846E3
:100C700013F04DF927480078012809D1C8219FEDCC
:100C8000260A02A800F08FF90020224908700CE023
:100C900020480078022808D1C8219FED1F0A02A829
:100CA00000F081F900201B49087007A808210523DE
:100CB0000022CDE900101146104613F028F9CBE7C9
:100CC00000B58BB00AA8032100220592CDE90621C8
:100CD000089010464FF480711922104BCDE9013273
:100CE000CDE9031008200023AFF2B3020CA100905D
:100CF0000E4811F071F9BDF828000BB000BD0000DE
:100D0000000C0040000000004400002034000020DF
:100D100024000020250000209A99993E801100208F
:100D20005461736B332042555A5A0000C0100020A2
:100D30000F490978417000210D4A11701146498808
:100D40000912817011468978C170114609790171C3
:100D50001146897941711146097A81710721017023
:100D60007047C178827801EB0221014A51807047B7
:100D70008015002010B54D480078012842D14C481C
:100D8000007800283ED100F098FA28B94848007849
:100D9000401C4749087003E0454800784449087002
:100DA000012000F08AFA28B941480078801C4049A7
:100DB000087003E03E4800783D490870022000F0CA
:100DC0007CFA28B93A480078C01C3949087003E019
:100DD0003748007836490870032000F06EFA28B9C9
:100DE00033480078001D3249087003E0304800782D
:100DF0002F4908702E480078002818DD00202B4964
:100E0000087014E0002000F058FA01280FD100F01B
:100E100054FA01280BD1022000F04FFA012806D124
:100E2000032000F04AFA012801D12049087010BDC2
:100E30001F49087800211E4A117070470EB500F056
:100E40001DFA14E0FFF796FFFFF7F2FF054600BF1B
:100E5000601CC4B2322C00D1002402A808210A234D
:100E60000022CDE900101146104613F050F8E9E7D2
:100E700000B58BB00AA8032100220592CDE9062116
:100E80000890104680210C220A4BCDE90132CDE9B1
:100E9000031007200023AFF25B0207A1009009486E
:100EA00011F09AF8BDF828000BB000BD61000020D9
:100EB000600000204C1600205461736B31206B657C
:100EC000790000008C15002000F078F904461349E1
:100ED000204600F06CF902E0204600F08AF9FBE7BA
:100EE00000B58BB00AA8032100220592CDE90621A6
:100EF0000890104680210C22094BCDE90132CDE942
:100F0000031006200023AFF23F0206A10090034821
:100F100011F062F8BDF828000BB000BD4C1800209D
:100F20000C1900205461736B31204C4544000000C3
:100F300010B504464FF47A7020809FED600A84ED6E
:100F4000010A05F0EFF8208800EE100AB8EE400A1A
:100F5000D4ED010A20EE200ABCEEC00A10EE101AF1
:100F60004FF0804009F0BDFF204610BD70B504462B
:100F70000D4625809FED510A84ED010A05F0D2F857
:100F8000208800EE100AB8EE400AD4ED010A20EEE7
:100F9000200ABCEEC00A10EE101A4FF0804009F093
:100FA000A0FF204670BD70B52DED028B0446B0EE5B
:100FB000408A0D4684ED018A208800EE100AB8EEC2
:100FC000400AD4ED010A20EE200ABCEEC00A10EE61
:100FD000101A4FF0804009F084FF28460AF0ADFB5C
:100FE0009FED360A84ED010A208800EE100AB8EE63
:100FF000400AD4ED010A20EE200ABCEEC00A10EE31
:10100000101A4FF0804009F06CFFBDEC028B70BDF0
:1010100070B52DED028B0446B0EE408A0D461646A3
:1010200084ED018A26802088411E254809F0B4FD00
:10103000208800EE100AB8EE400AD4ED010A20EE36
:10104000200ABCEEC00A10EE101A4FF0804009F0E2
:1010500048FF28460AF071FB9FED180A84ED010A4B
:10106000208800EE100AB8EE400AD4ED010A20EE06
:10107000200ABCEEC00A10EE101A4FF0804009F0B2
:1010800030FFBDEC028B70BD10B504462088411EB8
:101090004FF0804009F080FD208800EE100AB8EE85
:1010A000400AD4ED010A20EE200ABCEEC00A10EE80
:1010B000101A4FF0804009F014FF10BD000000002E
:1010C000000C004032480068704700B5014601201E
:1010D000087100200860FFF7F5FF08B92C4801608F
:1010E000084600BD7CB504460D461646206808B18A
:1010F000207C00B97CBDA560A68101A800900023DA
:101100000C22211D206811F08FFC00BFF2E770B5A2
:1011100004460D46256005F080FB20B901202074AF
:1011200005F0B0FB01E000202074207C70BD1FB5ED
:1011300028E0184800684FF47A71B1FBF0F0002104
:10114000B1FBF0F503A802AB01AA0090284611F00C
:10115000D6F90446BDF80C00A0B92078012811D1B9
:10116000606805F0C9FB202806D100F027F8054685
:10117000002100F066F805E000F020F805460121A6
:1011800000F05FF8D5E700B50348FFF79EFF00BD0C
:1011900064000020647A01080C1B0020002101700B
:1011A00041603349096809B931490860704770B531
:1011B00004460D46656000F09BF870BD2C48006841
:1011C0007047F8B506460C46174600250EE000208D
:1011D00000F0C1F8012000F0BEF8022000F0BBF8DA
:1011E0006A460021142012F00DFE6D1CA542EEDBB4
:1011F000F8BD1CB5044623E01E4800684FF47A7120
:10120000B1FBF0F0B1FBF0F501AB6A4600212846D6
:1012100011F090FD207848B9002000F09CF80120E2
:1012200000F099F8022000F096F809E020780128F3
:1012300006D1642214212046FFF7C3FF002020704E
:10124000DAE738B504460D46022D00DB38BD2570BF
:10125000606800B9FAE76A460021606812F068F930
:1012600000BFF3E700B50448FFF798FF00BD00009A
:1012700070000020647A0108680000201CB501217C
:10128000052007F0EBFF002414E0134830F81400A9
:10129000009000208DF8040003208DF80500012047
:1012A0008DF807000D4951F82400694607F038FD14
:1012B000601CC4B2052CE8DB1CBD0146074850F891
:1012C00021000069044A32F81120104008B10120C1
:1012D00070470020FCE700009C5F010874000020BC
:1012E0002B4931F810102B4A52F8202011837047F7
:1012F0001CB50121132007F0B1FF002417E024489A
:1013000030F81400009001208DF8040000208DF8C2
:10131000060003208DF8050000208DF807001D4908
:1013200051F82400694607F0FBFC601CC4B2032C92
:10133000E5DB0020FFF7D4FF0120FFF7D1FF0220FB
:10134000FFF7CEFF1CBD124931F81010114A52F8B8
:101350002020518370470F4951F8201049690C4AE9
:1013600032F8102051400B4A52F82020516170474A
:101370000146084850F821004069054A32F811201A
:101380000AB9012200E00022104080F001007047FD
:10139000A65F01088800002001B5BDF8000000909C
:1013A000BDF80000FB49088008BD01B5BDF800008C
:1013B0000090BDF80000F749891C088008BD08B5F9
:1013C000F448801C00880090BDF8000008BD03B5FB
:1013D000BDF80000EF490880BDF80400891C0880B2
:1013E0000CBD01B5BDF80000FFF7D6FF05200AF0DF
:1013F0007AF9FFF7E4FF08BDE7480089E54908806E
:101400007047E449891C0880704730B5014601F0F7
:101410001F04C1F34513CA0AE50205EB4315154441
:10142000A8B230BD00BF011EA0F10102D0B2FAD1B6
:10143000704730B504460D46D748808849F241319F
:10144000884205D0D448808845F21031884214D1B2
:10145000D1494889FFF7A0FF2012FFF7A6FFE0B2AD
:10146000FFF7A3FFCC498889FFF796FF2812FFF703
:101470009CFFE8B2FFF799FFABE0C748808846F6CB
:10148000040188421DD1C4488079012804D1C24892
:101490000088401E001B84B2BF494889FFF77CFFCB
:1014A0002012FFF782FFE0B2FFF77FFFBA49888979
:1014B000FFF772FF2812FFF778FFE8B2FFF775FF1A
:1014C00087E0B548808841F66311884247D1B24829
:1014D0008079A8B9B0480088401E001B84B2AE498C
:1014E0004889FFF759FF0020FFF75FFF0020FFF753
:1014F0005CFF2012FFF759FFE0B2FFF756FF16E03E
:10150000A5494889FFF748FF2012FFF74EFFE0B2D8
:10151000FFF74BFFA0490988491EC1F30F20FFF7D1
:1015200044FF9D490978491EC8B2FFF73EFF9A491A
:101530008889FFF731FF2812FFF737FFE8B2FFF77E
:1015400034FF95494988491EC1F30F20FFF72DFF4D
:1015500091498978491EC8B2FFF727FF39E08E48C4
:10156000808845F21051884220D18B494889FFF785
:1015700013FF2012FFF719FF87494989491C88B2D8
:10158000FFF70AFFE0B2FFF710FF83498889FFF7F2
:1015900003FF2812FFF709FF7F498989491C88B298
:1015A000FFF7FAFEE8B2FFF700FF12E07A48807911
:1015B000012804D178480088401E001B84B2764977
:1015C00048892146FFF703FF734988892946FFF7B9
:1015D000FEFE30BD3EB504460D460020029001904F
:1015E00000906D480088A04203DD6B484088A84207
:1015F00001DC00203EBD29462046FFF71AFF664861
:10160000808849F24131884211D06348808846F68B
:10161000040188420BD06048808845F2103188422E
:1016200005D05D48808841F66311884203D12E20A1
:10163000FFF7B2FE0DE05848808845F2105188420D
:1016400004D14FF43850FFF7A7FE02E02220FFF745
:10165000A3FE5148808849F22031884202D10220FD
:10166000FFF7E0FEFFF7ABFE02904B48808841F6A3
:101670006311884202D1BDF80800BBE70220FFF7E2
:10168000D1FEFFF79CFE02904348808849F2413129
:1016900088420BD04048808845F21031884205D0FE
:1016A0003D48808845F21051884210D10220FFF752
:1016B000B9FEFFF784FE0090BDF80800C0B20190AB
:1016C000BDF804004FF6FF7101EA00200190324896
:1016D000808849F22531884216D02F48808844F20C
:1016E0003551884210D02C488088091F88420BD081
:1016F000294880884BF20551884205D026488088C9
:101700004CF20551884202D1BDF8080072E7224828
:10171000808849F2413188420BD01F48808845F2C9
:101720001031884205D01C48808845F2105188420B
:101730000DD1BDF80800C012C002BDF80410891216
:1017400040EA4110BDF8001040EAE12052E7BDF840
:101750000800FFF75AFE4DE700B50F48808849F2B0
:101760004131884211D00C48808846F604018842F5
:101770000BD00948808845F21031884205D00648D0
:10178000808841F66311884208D12920FFF704FEC2
:1017900014E00000FEFF0160201B0020FE4880884E
:1017A00045F21051884204D14FF42450FFF7F4FD64
:1017B00004E040F273110720FFF709FE00BD00B5F9
:1017C000F548808849F24131884211D0F24880883A
:1017D00046F6040188420BD0EF48808845F210316C
:1017E000884205D0EC48808841F66311884203D1D5
:1017F0002820FFF7D1FD0EE0E748808845F2105120
:10180000884204D14FF42050FFF7C6FD03E00021C9
:101810000720FFF7DCFD00BDF0B5054600240027DA
:10182000DD48807901280BD1DB48808846F6040129
:10183000884205D0D848808841F66311884208D193
:10184000D5488079F0B9D448808841F66311884240
:1018500018D1082D15D2DFE805F00406080A0C0E91
:10186000101206250DE007250BE0042509E00525EB
:1018700007E0012505E0002503E0032501E002253E
:1018800000BF00BFC448808849F24131884217D068
:10189000C148808846F60401884211D0BE4880883D
:1018A00045F2103188420BD0BB48808845F2105178
:1018B000884205D0B848808841F6631188427DD1BE
:1018C000082D1CD2DFE805F00406090C0F121518CC
:1018D00000BF14E044F0800411E044F040040EE046
:1018E00044F0C0040BE044F0200408E044F060043D
:1018F00005E044F0A00402E044F0E00400BF00BFB3
:10190000A548808845F21051884202D14FF45857BB
:1019100000E03627A048808845F2103188420DD07B
:101920009D48808845F21051884207D09A488088A7
:1019300041F66311884201D044F00804964880883B
:1019400046F60401884201D144F00204214638469B
:10195000FFF73DFD9048808841F6631188421DD015
:1019600004F0200068B18C4800888B49498888427F
:1019700014DA8948068840888749088008464680E6
:101980000CE08548008884494988884206DD824801
:101990000688408880490880084646807E488088BE
:1019A00045F21051884254D17B494889FFF7F4FC35
:1019B0000020FFF7FAFC7849498900E078E0491CEB
:1019C00088B2FFF7E9FC0020FFF7EFFC7249498974
:1019D000891C88B2FFF7E0FC6F490988491EC1F3F2
:1019E0000F20FFF7E2FC6C494989C91C88B2FFF758
:1019F000D3FC69490978491EC8B2FFF7D6FC66498D
:101A00008889FFF7C9FC0020FFF7CFFC624989896C
:101A1000491C88B2FFF7C0FC0020FFF7C6FC5E49F6
:101A20008989891C88B2FFF7B7FC5B494988491E40
:101A3000C1F30F20FFF7B9FC57498989C91C88B247
:101A4000FFF7AAFC54498978491EC8B2FFF7ADFCDC
:101A500055E051494889FFF79FFC0020FFF7A5FC9E
:101A60000020FFF7A2FC4C490988491EC1F30F2052
:101A7000FFF79BFC48490978491EC8B2FFF795FC5F
:101A800045498889FFF788FC0020FFF78EFC00207D
:101A9000FFF78BFC40494988491EC1F30F20FFF72F
:101AA00084FC3D498978491EC8B2FFF77EFC26E0D8
:101AB000082D1CD2DFE805F004070A0D0F121518D7
:101AC00044F0300413E044F0100410E044F020042B
:101AD0000DE000BF0BE044F0380408E044F02804B7
:101AE00005E044F0180402E044F0080400BF00BF21
:101AF000032744F4805421463846FFF768FCF0BDC4
:101B000030B504460D4629462046FFF792FCFFF704
:101B100073FC224800882249088030BD70B5044615
:101B20000D4616461C48808849F24131884205D04E
:101B30001948808845F21031884214D116494889E5
:101B4000FFF72AFC2012FFF730FCE0B2FFF72DFC74
:101B500011498889FFF720FC2812FFF726FCE8B21C
:101B6000FFF723FC93E00C48808845F2105188422F
:101B700027D109494889FFF70FFC2012FFF715FC10
:101B800005494989491C88B2FFF706FCE0B2FFF716
:101B90000CFC0149888905E0201B002094000020EE
:101BA00000000260FFF7F8FB2812FFF7FEFBFE497A
:101BB0008989491C88B2FFF7EFFBE8B2FFF7F5FB14
:101BC00065E0F948808841F66311884228D1F648DB
:101BD000807920B9F4480088401E001B84B2F24985
:101BE0004889FFF7D9FB2012FFF7DFFBE0B2FFF7D0
:101BF000DCFB2012FFF7D9FBE0B2FFF7D6FBEA4986
:101C00008889FFF7C9FB2812FFF7CFFBE8B2FFF77F
:101C1000CCFB2812FFF7C9FBE8B2FFF7C6FB36E0A2
:101C2000E148808846F6040188421DD1DE4880796B
:101C3000012804D1DC480088401E001B84B2DA4928
:101C40004889FFF7A9FB2012FFF7AFFBE0B2FFF7CF
:101C5000ACFBD5498889FFF79FFB2812FFF7A5FB4E
:101C6000E8B2FFF7A2FB12E0CF488079012804D147
:101C7000CD480088401E001B84B2CB4948892146CC
:101C8000FFF7A5FBC84988892946FFF7A0FBC6488E
:101C90000089C6490880881C068070BD70B52DED8E
:101CA000048B0446BE20FFF777FB0520FFF77DFB82
:101CB000204613F0B7FD41EC190B9FEDBD0B53EC23
:101CC000102B13F0FFFD41EC180B13F067FD85B2EC
:101CD0002846FFF76AFB0120FFF767FBFF20FFF7AD
:101CE00064FB0020FFF761FB0020FFF75EFBBDEC0B
:101CF000048B70BD10B50446002C66D1AA498871CA
:101D0000F02008804FF4A07048800846808849F28F
:101D1000413188420BD0A448808846F604018842AD
:101D200005D0A148808845F2103188421AD12C2074
:101D30009D4908812A2048812B2088810846808877
:101D400046F60401884205D09748808845F2103154
:101D5000884206D14FF4A070934908804FF4F07088
:101D60004880A1E09048808845F21051884210D107
:101D70004FF430508C4908814FF4285048814FF47B
:101D80002C5088814FF4F07008804FF448704880E0
:101D90008AE08548808841F6631188420DD12C2065
:101DA000814908812B2048812A2088814FF4F070D6
:101DB00008804FF44870488076E022207A490881F4
:101DC00020204881212088816EE001207649887199
:101DD0004FF4A0700880F02048800846808849F2BF
:101DE0004131884205D07048808845F210318842E0
:101DF00007D12C206C4908812A2048812B2088811A
:101E00003FE06948808846F60401884207D12C20CB
:101E1000654908812B2048812A20888131E0624869
:101E2000808845F21051884210D14FF430505E49FD
:101E300008814FF4285048814FF42C5088814FF48A
:101E4000487008804FF4F07048801AE05648808847
:101E500041F6631188420DD12C20534908812A2074
:101E600048812B2088814FF4487008804FF4F0702F
:101E7000488006E022204C4908812120488120200A
:101E800088814948808846F60401884205D0464842
:101E9000808845F21031884206D14FF4F0704249F3
:101EA00008804FF4A07048800020FFF7B5FC10BDFB
:101EB0002DE9F04F86B004460D469046994604EB56
:101EC0000800401E86B205EB0900401E87B2364866
:101ED000808849F24131884215D03348808845F2E4
:101EE000103188420FD03048808846F6040188427D
:101EF00009D02D488079012826D12B48808841F6C9
:101F00006311884220D128494889FFF745FA2012F9
:101F1000FFF74BFAE0B2FFF748FA3012FFF745FA45
:101F2000F0B2FFF742FA20498889FFF735FA281204
:101F3000FFF73BFAE8B2FFF738FA3812FFF735FA45
:101F4000F8B2FFF732FAC1E01748808841F6631112
:101F500088423DD114480088A0EB0800001B84B2E1
:101F600005EB0900401E1FFA80F90F494889FFF769
:101F700013FA2012FFF719FAE0B2FFF716FA04EB92
:101F80000801491EC1F30F20FFF70FFA04EB080107
:101F9000491EC8B2FFF709FA03498889FFF7FCF91F
:101FA0002812FFF702FA07E0201B0020FEFF016065
:101FB0006666666666660440E8B2FFF7F6F94FEAC1
:101FC0002920FFF7F2F909F0FF00FFF7EEF97DE0B5
:101FD000FE48808845F21051884244D1FB49488927
:101FE000FFF7DAF92012FFF7E0F9F8494989491CAF
:101FF00088B2FFF7D1F9E0B2FFF7D7F9F349498981
:10200000891C88B2FFF7C8F93012FFF7CEF9EF4903
:102010004989C91C88B2FFF7BFF9F0B2FFF7C5F9CB
:10202000EA498889FFF7B8F92812FFF7BEF9E749AE
:102030008989491C88B2FFF7AFF9E8B2FFF7B5F913
:10204000E2498989891C88B2FFF7A6F93812FFF79F
:10205000ACF9DE498989C91C88B2FFF79DF9F8B24D
:10206000FFF7A3F932E0D948807901280ED1AA46BA
:10207000BB46D6480088801B401E80B20190D348E2
:102080000088001B401E80B2009003E0A246B346C9
:102090000195009750200590512004905220039004
:1020A0005320029051460598FFF791F9594604983C
:1020B000FFF78DF901990398FFF789F900990298C4
:1020C000FFF785F929462046FFF7B3F906B0BDE8CA
:1020D000F08F70B504460026BC480588408845430B
:1020E000BA48808846F60401884216D1B7488079FC
:1020F000012812D10020B54988712A2048812B205F
:10210000888100210846FFF794F90120AF498871C2
:102110002B2048812A20888103E000210846FFF710
:1021200088F9FFF769F9002602E0A9480480761CC7
:10213000AE42FAD370BD00B5A1B0002020900121BD
:102140001A2007F08BF80121084607F0BFF84FF47A
:1021500080601E9001208DF87C0000208DF87E00AC
:1021600002208DF87D0001208DF87F001EA999487E
:1021700006F0D6FD4CF233701E9002208DF87C00E4
:1021800000208DF87E0003208DF87D0001208DF861
:102190007F001EA9904806F0C3FD4FF680701E9088
:1021A00002208DF87C0000208DF87E0003208DF841
:1021B0007D0001208DF87F001EA9884806F0B0FD43
:1021C0004FF400601E9002208DF87C0000208DF8F6
:1021D0007E0003208DF87D0001208DF87F001EA970
:1021E0007D4806F09DFD80201E9002208DF87C0029
:1021F00000208DF87E0003208DF87D0001208DF8F1
:102200007F001EA9744806F08BFD0C220021724845
:1022100006F011FE0C2201216F4806F00CFE0C2284
:1022200004216D4806F007FE0C2205216A4806F0DD
:1022300002FE0C220821684806F0FDFD0C2209214F
:10224000654806F0F8FD0C220A21634806F0F3FD0C
:102250000C220E21604806F0EEFD0C220F215E4894
:1022600006F0E9FD0C2207215C4806F0E4FD0C2293
:1022700008215A4806F0DFFD0C220921574806F0D4
:10228000DAFD0C220A21554806F0D5FD0C220B215F
:10229000524806F0D0FD0C221146504806F0CBFD06
:1022A0000C220D214D4806F0C6FD0C220E214B4894
:1022B00006F0C1FD0C220F21484806F0BCFD0C229F
:1022C0000B21454806F0B7FD0C220721424806F0D5
:1022D000B2FD0F200890002009903C200A900020B9
:1022E0000B900C900D900E90092001900020029010
:1022F00008200390002004900590069007900F900E
:1023000010901190102012900020139015901490AE
:10231000169017904FF480501890002019904FF4A9
:1023200080401A9000201B9008A81C9001A81D90C6
:102330000FA807F030FE0121002007F0B7FE322081
:1023400009F0FBF901210020FFF741F8322009F0E4
:10235000F4F90020FFF745F81C498880084680887A
:10236000FF280ADB084680884FF6FF71884204D0B8
:1023700016488088B0F5134F7ED1D320FFF70CF8B4
:10238000FFF71DF811498880FFF719F80F49888079
:10239000FFF715F80D498880084680884FF6FF71D1
:1023A00001EA002009498880FFF709F80749898870
:1023B0000843064988800846808849F241318842AE
:1023C0005AD0BF20FEF7E8FF0AE00000201B0020E3
:1023D0000000026000040240000C024000100240B5
:1023E000FEF7EDFFFE498880FEF7E9FFFC49888093
:1023F000FEF7E5FFFA498880FEF7E1FFF84988809B
:10240000084680884FF6FF7101EA0020F449888071
:10241000FEF7D5FFF24989880843F14988800846CC
:10242000808846F6040188427AD0D420FEF7B4FFB3
:10243000FEF7C5FFEA498880FEF7C1FFE8498880BA
:10244000FEF7BDFFE6498880084680884FF6FF7199
:1024500001EA0020E2498880FEF7B1FFE04989885F
:102460000843DF4988800846808845F21031884259
:1024700056D04FF45A4000E052E0FEF78DFFFEF7D1
:102480009EFFD74988804FF45B40FEF785FFFEF73B
:1024900096FFD3498880084680884FF6FF7101EA8D
:1024A0000020CF4988804FF45C40FEF775FFFEF7AF
:1024B00086FFCB4989880843C949888008468088B7
:1024C000B0F5004F02D145F210508880C448808892
:1024D00045F21051884223D0A120FEF75DFFFEF7A0
:1024E0006EFFBF498880FEF76AFFBD4988800846B5
:1024F00080884FF6FF7101EA0020B9498880FEF715
:102500005EFFB74989880843B549888008468088B6
:1025100045F26171884203D141F66310B049888069
:10252000AF48808849F24131884211D0AC48808858
:1025300045F2103188420BD0A948808845F21051ED
:10254000884205D0A648808841F6631188421DD193
:10255000A448006820F00F004FF02041C1F81C0192
:102560000846D0F81C0120F47060C1F81C01084630
:10257000D0F81C0140F00300C1F81C010846D0F857
:102580001C0140F40070C1F81C0128E094488088C8
:1025900046F60401884205D0914880884CF20551E6
:1025A00088421CD18F48006820F00F004FF0204176
:1025B000C1F81C010846D0F81C0120F47060C1F875
:1025C0001C010846D0F81C0140F00A00C1F81C01AB
:1025D0000846D0F81C0140F44060C1F81C01804856
:1025E000808849F2413188427ED1CF20FEF7D4FE67
:1025F0000020FEF7DAFE2098401C2090C120FEF754
:10260000D4FE3020FEF7D1FEED20FEF7C5FE64209B
:10261000FEF7CBFE0320FEF7C8FE1220FEF7C5FE34
:102620008120FEF7C2FEE820FEF7B6FE8520FEF709
:10263000BCFE1020FEF7B9FE7A20FEF7B6FECB20D6
:10264000FEF7AAFE3920FEF7B0FE2C20FEF7ADFE05
:102650000020FEF7AAFE3420FEF7A7FE0220FEF7B8
:10266000A4FEF720FEF798FE2020FEF79EFEEA204B
:10267000FEF792FE0020FEF798FE0020FEF795FE82
:10268000C020FEF789FE1B20FEF78FFEC120FEF75B
:1026900083FE0120FEF789FEC520FEF77DFE302077
:1026A000FEF783FE3020FEF780FEC720FEF774FEA3
:1026B000B720FEF77AFE3620FEF76EFE4820FEF7C2
:1026C00074FE3A20FEF768FE5520FEF76EFEB1203C
:1026D000FEF762FE0020FEF768FE1A20FEF765FE98
:1026E000B620FEF759FE00E0A0E00A20FEF75DFEEE
:1026F000A220FEF75AFEF220FEF74EFE0020FEF763
:1027000054FE2620FEF748FE0120FEF74EFEE02094
:10271000FEF742FE0F20FEF748FE2A20FEF745FE98
:102720002820FEF742FE0820FEF73FFE0E20FEF7AF
:102730003CFE0820FEF739FE5420FEF736FEA920A5
:10274000FEF733FE4320FEF730FE0A20FEF72DFE93
:102750000F20FEF72AFE0020FEF727FE0020FEF7DE
:1027600024FE0020FEF721FE0020FEF71EFEE120E1
:10277000FEF712FE0020FEF718FE1520FEF715FEEC
:102780001720FEF712FE0720FEF70FFE1120FEF7BE
:102790000CFE0620FEF709FE2B20FEF706FE562053
:1027A000FEF703FE3C20FEF700FE0520FEF7FDFDD0
:1027B0001020FEF7FAFD0F20FEF7F7FD3F20FEF791
:1027C000F4FD3F20FEF7F1FD0F20FEF7EEFD2B207C
:1027D000FEF7E2FD0020FEF7E8FD002004E0000027
:1027E000201B00201C0100A0FEF7DFFD0120FEF7EA
:1027F000DCFD3F20FEF7D9FD2A20FEF7CDFD0020AD
:10280000FEF7D3FD0020FEF7D0FD0020FEF7CDFD42
:10281000EF20FEF7CAFD1120FEF7BEFD782008F07C
:102820008CFF2920FEF7B8FD03F01DB9FE48808813
:1028300046F6040188427CD11120FEF7ADFD14203C
:1028400008F07BFFD020FEF7A7FD0720FEF7ADFDC7
:102850004220FEF7AAFD1D20FEF7A7FDD120FEF7BE
:102860009BFD0020FEF7A1FD1A20FEF79EFD09202A
:10287000FEF79BFDD220FEF78FFD0120FEF795FDB0
:102880002220FEF792FDC020FEF786FD1020FEF705
:102890008CFD3B20FEF789FD0020FEF786FD02201F
:1028A000FEF783FD1120FEF780FDC520FEF774FDC5
:1028B0000320FEF77AFDC820FEF76EFD0020FEF72C
:1028C00074FD2520FEF771FD2120FEF76EFD052029
:1028D000FEF76BFD0020FEF768FD0A20FEF765FDA0
:1028E0006520FEF762FD2520FEF75FFD7720FEF7ED
:1028F0005CFD5020FEF759FD0F20FEF756FD00202D
:10290000FEF753FDF820FEF747FD0120FEF74DFDD1
:10291000FE20FEF741FD0020FEF747FD0220FEF7F6
:1029200044FD2020FEF738FD3620FEF735FD082057
:1029300000E02CE0FEF739FD3A20FEF72DFD552092
:10294000FEF733FD2B20FEF727FD0020FEF72DFDBF
:102950000020FEF72AFD0120FEF727FD3F20FEF7AD
:1029600024FD2A20FEF718FD0020FEF71EFD0020A2
:10297000FEF71BFD0120FEF718FDDF20FEF715FD19
:10298000782008F0DAFE2920FEF706FD4CE7A6487D
:10299000808845F21031884240F07C87ED20FEF7B8
:1029A000FBFC0120FEF701FDFE20FEF7FEFCEE2001
:1029B000FEF7F2FCDE20FEF7F8FC2120FEF7F5FC26
:1029C000F120FEF7E9FC0120FEF7EFFCDF20FEF727
:1029D000E3FC1020FEF7E9FCC420FEF7DDFC8F20AD
:1029E000FEF7E3FCC620FEF7D7FC0020FEF7DDFC77
:1029F000E220FEF7DAFCE220FEF7D7FCE220FEF749
:102A0000D4FCBF20FEF7C8FCAA20FEF7CEFCB02005
:102A1000FEF7C2FC0D20FEF7C8FC0020FEF7C5FC47
:102A20000D20FEF7C2FC0020FEF7BFFC1120FEF7D0
:102A3000BCFC0020FEF7B9FC1920FEF7B6FC002014
:102A4000FEF7B3FC2120FEF7B0FC0020FEF7ADFC42
:102A50002D20FEF7AAFC0020FEF7A7FC3D20FEF784
:102A6000A4FC0020FEF7A1FC5D20FEF79EFC0020E8
:102A7000FEF79BFC5D20FEF798FC0020FEF795FC1E
:102A8000B120FEF789FC8020FEF78FFC0020FEF7C6
:102A90008CFC8B20FEF789FC0020FEF786FC96203C
:102AA000FEF783FC0020FEF780FCB220FEF774FCEA
:102AB0000020FEF77AFC0020FEF777FC0220FEF7EC
:102AC00074FC0020FEF771FC0320FEF76EFC002072
:102AD000FEF76BFCB320FEF75FFC0020FEF765FC01
:102AE0000020FEF762FC0020FEF75FFC0020FEF7EE
:102AF0005CFC0020FEF759FC0020FEF756FC00208D
:102B0000FEF753FC0020FEF750FC0020FEF74DFCC2
:102B10000020FEF74AFC0020FEF747FC0020FEF7ED
:102B200044FC0020FEF741FC0020FEF73EFC0020A4
:102B3000FEF73BFC0020FEF738FC0020FEF735FCDA
:102B40000020FEF732FC0020FEF72FFC0020FEF7ED
:102B50002CFC0020FEF729FC0020FEF726FC0020BC
:102B6000FEF723FC0020FEF720FCB420FEF714FC47
:102B70008B20FEF71AFC0020FEF717FC9620FEF7CC
:102B800014FC0020FEF711FCA120FEF70EFC002033
:102B9000FEF70BFCB520FEF7FFFB0220FEF705FC5D
:102BA0000020FEF702FC0320FEF7FFFB0020FEF7EB
:102BB000FCFB0420FEF7F9FB0020FEF7F6FBB62035
:102BC000FEF7EAFB0020FEF7F0FB0020FEF7EDFB2E
:102BD000B720FEF7E1FB0020FEF7E7FB0020FEF741
:102BE000E4FB3F20FEF7E1FB0020FEF7DEFB5E206A
:102BF000FEF7DBFB0020FEF7D8FB6420FEF7D5FBD9
:102C00000020FEF7D2FB8C20FEF7CFFB0020FEF762
:102C1000CCFBAC20FEF7C9FB0020FEF7C6FBDC2096
:102C2000FEF7C3FB002001E0201B0020FEF7BDFBE8
:102C30007020FEF7BAFB0020FEF7B7FB9020FEF7EE
:102C4000B4FB0020FEF7B1FBEB20FEF7AEFB00204B
:102C5000FEF7ABFBDC20FEF7A8FB0020FEF7A5FB90
:102C6000B820FEF799FB0020FEF79FFB0020FEF73F
:102C70009CFB0020FEF799FB0020FEF796FB00204E
:102C8000FEF793FB0020FEF790FB0020FEF78DFB84
:102C90000020FEF78AFBBA20FEF77EFB2420FEF719
:102CA00084FB0020FEF781FB0020FEF77EFB002066
:102CB000FEF77BFBC120FEF76FFB2020FEF775FBC4
:102CC0000020FEF772FB5420FEF76FFB0020FEF79A
:102CD0006CFBFF20FEF769FB0020FEF766FBC220BD
:102CE000FEF75AFB0A20FEF760FB0020FEF75DFBB3
:102CF0000420FEF75AFB0020FEF757FBC320FEF727
:102D00004BFB3C20FEF751FB0020FEF74EFB3A2028
:102D1000FEF74BFB0020FEF748FB3920FEF745FB92
:102D20000020FEF742FB3720FEF73FFB0020FEF7B6
:102D30003CFB3C20FEF739FB0020FEF736FB36203B
:102D4000FEF733FB0020FEF730FB3220FEF72DFBB1
:102D50000020FEF72AFB2F20FEF727FB0020FEF7BE
:102D600024FB2C20FEF721FB0020FEF71EFB292070
:102D7000FEF71BFB0020FEF718FB2620FEF715FBD5
:102D80000020FEF712FB2420FEF70FFB0020FEF7C9
:102D90000CFB2420FEF709FB0020FEF706FB232096
:102DA000FEF703FB0020FEF700FB3C20FEF7FDFAD8
:102DB0000020FEF7FAFA3620FEF7F7FA0020FEF7B9
:102DC000F4FA3220FEF7F1FA0020FEF7EEFA2F2097
:102DD000FEF7EBFA0020FEF7E8FA2C20FEF7E5FA02
:102DE0000020FEF7E2FA2920FEF7DFFA0020FEF7C6
:102DF000DCFA2620FEF7D9FA0020FEF7D6FA2420C6
:102E0000FEF7D3FA0020FEF7D0FA2420FEF7CDFA21
:102E10000020FEF7CAFA2320FEF7C7FA0020FEF7CB
:102E2000C4FAC420FEF7B8FA6220FEF7BEFA00200A
:102E3000FEF7BBFA0520FEF7B8FA0020FEF7B5FA58
:102E40008420FEF7B2FA0020FEF7AFFAF020FEF77A
:102E5000ACFA0020FEF7A9FA1820FEF7A6FA002027
:102E6000FEF7A3FAA420FEF7A0FA0020FEF79DFAD1
:102E70001820FEF79AFA0020FEF797FA5020FEF786
:102E800094FA0020FEF791FA0C20FEF78EFA00204B
:102E9000FEF78BFA1720FEF788FA0020FEF785FA76
:102EA0009520FEF782FA0020FEF77FFAF320FEF766
:102EB0007CFA0020FEF779FAE620FEF776FA002089
:102EC000FEF773FAC520FEF767FA3220FEF76DFAB7
:102ED0000020FEF76AFA4420FEF767FA0020FEF7AA
:102EE00064FA6520FEF761FA0020FEF75EFA7620AC
:102EF000FEF75BFA0020FEF758FA8820FEF755FA35
:102F00000020FEF752FAC620FEF746FA2020FEF710
:102F10004CFA0020FEF749FA1720FEF746FA002087
:102F2000FEF743FA0120FEF740FA0020FEF73DFAD3
:102F3000C720FEF731FA0020FEF737FA0020FEF72F
:102F400034FA0020FEF731FA0020FEF72EFAC820EE
:102F5000FEF722FA0020FEF728FA0020FEF725FAF5
:102F60000020FEF722FA0020FEF71FFAC920FEF724
:102F700013FA0020FEF719FA0020FEF716FA0020D7
:102F8000FEF713FA0020FEF710FA0020FEF70DFA04
:102F90000020FEF70AFA0020FEF707FA0020FEF7ED
:102FA00004FA0020FEF701FA0020FEF7FEF90020E7
:102FB000FEF7FBF90020FEF7F8F90020FEF7F5F91F
:102FC0000020FEF7F2F90020FEF7EFF90020FEF7EF
:102FD000ECF9E020FEF7E0F91620FEF7E6F9002014
:102FE000FEF7E3F91C20FEF7E0F90020FEF7DDF91B
:102FF0002120FEF7DAF90020FEF7D7F93620FEF798
:10300000D4F90020FEF7D1F94620FEF7CEF90020D2
:10301000FEF7CBF95220FEF7C8F90020FEF7C5F9FC
:103020006420FEF7C2F90020FEF7BFF97A20FEF710
:10303000BCF90020FEF7B9F98B20FEF7B6F90020A5
:10304000FEF7B3F99920FEF7B0F90020FEF7ADF9CD
:10305000A820FEF7AAF90020FEF7A7F9B920FEF78D
:10306000A4F90020FEF7A1F9C420FEF79EF9002084
:10307000FEF79BF9CA20FEF798F90020FEF795F9B4
:10308000D220FEF792F90020FEF78FF9D920FEF743
:103090008CF90020FEF789F9E020FEF786F9002080
:1030A000FEF783F9F320FEF780F90020FEF77DF9A3
:1030B000E120FEF771F91620FEF777F90020FEF700
:1030C00074F91C20FEF771F90020FEF76EF922203A
:1030D000FEF76BF90020FEF768F93620FEF765F978
:1030E0000020FEF762F94520FEF75FF90020FEF7A9
:1030F0005CF95220FEF759F90020FEF756F96420DA
:10310000FEF753F90020FEF750F97A20FEF74DF94B
:103110000020FEF74AF98B20FEF747F90020FEF762
:1031200044F99920FEF741F90020FEF73EF9A82066
:10313000FEF73BF90020FEF738F9B920FEF735F924
:103140000020FEF732F9C420FEF72FF90020FEF729
:103150002CF9CA20FEF729F90020FEF726F9D22023
:10316000FEF723F90020FEF720F9D820FEF71DF91D
:103170000020FEF71AF9E020FEF717F90020FEF70D
:1031800014F9F320FEF711F90020FEF70EF9E22002
:10319000FEF702F90520FEF708F90020FEF705F911
:1031A0000B20FEF702F90020FEF7FFF81B20FEF7C8
:1031B000FCF80020FEF7F9F83420FEF7F6F80020BE
:1031C000FEF7F3F84420FEF7F0F80020FEF7EDF8E4
:1031D0004F20FEF7EAF80020FEF7E7F86120FEF73F
:1031E000E4F80020FEF7E1F87920FEF7DEF8002091
:1031F000FEF7DBF88820FEF7D8F80020FEF7D5F8B8
:103200009720FEF7D2F80020FEF7CFF8A620FEF7B1
:10321000CCF80020FEF7C9F8B720FEF7C6F800206A
:10322000FEF7C3F8C220FEF7C0F80020FEF7BDF895
:10323000C720FEF7BAF80020FEF7B7F8D120FEF756
:10324000B4F80020FEF7B1F8D620FEF7AEF8002063
:10325000FEF7ABF8DD20FEF7A8F80020FEF7A5F892
:10326000F320FEF7A2F80020FEF79FF8E320FEF718
:1032700093F80520FEF799F80020FEF796F80A204B
:10328000FEF793F80020FEF790F81C20FEF78DF86B
:103290000020FEF78AF83320FEF787F80020FEF7BB
:1032A00084F84420FEF781F80020FEF77EF85020D5
:1032B000FEF77BF80020FEF778F86220FEF775F83D
:1032C0000020FEF772F87820FEF76FF80020FEF776
:1032D0006CF88820FEF769F80020FEF766F8972062
:1032E000FEF763F80020FEF760F8A620FEF75DF811
:1032F0000020FEF75AF8B720FEF757F80020FEF737
:1033000054F8C220FEF751F80020FEF74EF8C7200F
:10331000FEF74BF80020FEF748F8D120FEF745F8FD
:103320000020FEF742F8D520FEF73FF80020FEF718
:103330003CF8DD20FEF739F80020FEF736F8F320E0
:10334000FEF733F80020FEF730F8E420FEF724F80B
:103350000120FEF72AF80020FEF727F80120FEF7EB
:1033600024F80020FEF721F80220FEF71EF80020C6
:10337000FEF71BF82A20FEF718F80020FEF715F8D4
:103380003C20FEF712F80020FEF70FF84B20FEF766
:103390000CF80020FEF709F85D20FEF706F8002083
:1033A000FEF703F87420FEF700F80020FDF7FDFF9C
:1033B0008420FDF7FAFF0020FDF7F7FF9320FDF7CB
:1033C000F4FF0020FDF7F1FFA220FDF7EEFF002043
:1033D000FDF7EBFFB320FDF7E8FF0020FDF7E5FF69
:1033E000BE20FDF7E2FF0020FDF7DFFFC420FDF760
:1033F000DCFF0020FDF7D9FFCD20FDF7D6FF002030
:10340000FDF7D3FFD320FDF7D0FF0020FDF7CDFF60
:10341000DD20FDF7CAFF0020FDF7C7FFF320FDF711
:10342000C4FF0020FDF7C1FFE520FDF7B5FF002038
:10343000FDF7BBFF0020FDF7B8FF0020FDF7B5FF4B
:103440000020FDF7B2FF0220FDF7AFFF0020FDF7DF
:10345000ACFF2920FDF7A9FF0020FDF7A6FF3C20C7
:10346000FDF7A3FF0020FDF7A0FF4B20FDF79DFF18
:103470000020FDF79AFF5D20FDF797FF0020FDF784
:1034800094FF7420FDF791FF0020FDF78EFF84204C
:10349000FDF78BFF0020FDF788FF9320FDF785FFE8
:1034A0000020FDF782FFA220FDF77FFF0020FDF73F
:1034B0007CFFB320FDF779FF0020FDF776FFBE20EB
:1034C000FDF773FF0020FDF770FFC420FDF76DFFCF
:1034D0000020FDF76AFFCD20FDF767FF0020FDF714
:1034E00064FFD320FDF761FF0020FDF75EFFDC20C5
:1034F000FDF75BFF0020FDF758FFF320FDF755FFB8
:103500000020FDF752FFE620FDF746FF1120FDF7F2
:103510004CFF0020FDF749FF3420FDF746FF002057
:10352000FDF743FF5620FDF740FF0020FDF73DFF6C
:103530007620FDF73AFF0020FDF737FF7720FDF7F3
:1035400034FF0020FDF731FF6620FDF72EFF00203D
:10355000FDF72BFF8820FDF728FF0020FDF725FF52
:103560009920FDF722FF0020FDF71FFFBB20FDF78C
:103570001CFF0020FDF719FF9920FDF716FF002022
:10358000FDF713FF6620FDF710FF0020FDF70DFF8C
:103590005520FDF70AFF0020FDF707FF5520FDF736
:1035A00004FF0020FDF701FF4520FDF7FEFE00208F
:1035B000FDF7FBFE4320FDF7F8FE0020FDF7F5FECA
:1035C0004420FDF7F2FE0020FDF7EFFEE720FDF7B7
:1035D000E3FE3220FDF7E9FE0020FDF7E6FE552070
:1035E000FDF7E3FE0020FDF7E0FE7620FDF7DDFEAF
:1035F0000020FDF7DAFE6620FDF7D7FE0020FDF77C
:10360000D4FE6720FDF7D1FE0020FDF7CEFE672037
:10361000FDF7CBFE0020FDF7C8FE8720FDF7C5FEB5
:103620000020FDF7C2FE9920FDF7BFFE0020FDF748
:10363000BCFEBB20FDF7B9FE0020FDF7B6FE9920C9
:10364000FDF7B3FE0020FDF7B0FE7720FDF7ADFEDD
:103650000020FDF7AAFE4420FDF7A7FE0020FDF79D
:10366000A4FE5620FDF7A1FE0020FDF79EFE2320BC
:10367000FDF79BFE0020FDF798FE3320FDF795FE39
:103680000020FDF792FE4520FDF78FFE0020FDF79C
:103690008CFEE820FDF780FE0020FDF786FE00206E
:1036A000FDF783FE9920FDF780FE0020FDF77DFEEB
:1036B0008720FDF77AFE0020FDF777FE8820FDF7D2
:1036C00074FE0020FDF771FE7720FDF76EFE0020EE
:1036D000FDF76BFE6620FDF768FE0020FDF765FE36
:1036E0008820FDF762FE0020FDF75FFEAA20FDF7AF
:1036F0005CFE0020FDF759FEBB20FDF756FE0020C2
:10370000FDF753FE9920FDF750FE0020FDF74DFE1A
:103710006620FDF74AFE0020FDF747FE5520FDF725
:1037200044FE0020FDF741FE5520FDF73EFE00203F
:10373000FDF73BFE4420FDF738FE0020FDF735FE87
:103740004420FDF732FE0020FDF72FFE5520FDF747
:103750002CFE0020FDF729FEE920FDF71DFEAA2022
:10376000FDF723FE0020FDF720FE0020FDF71DFEE3
:103770000020FDF71AFE0020FDF70EFEAA20FDF73F
:1037800014FECF20FDF708FE0020FDF70EFE0020FE
:10379000FDF70BFE0020FDF708FE0020FDF705FEFB
:1037A0000020FDF702FE0020FDF7FFFD0020FDF7E1
:1037B000FCFD0020FDF7F9FD0020FDF7F6FD0020DF
:1037C000FDF7F3FD0020FDF7F0FD0020FDF7EDFD16
:1037D0000020FDF7EAFD0020FDF7E7FD0020FDF7E2
:1037E000E4FD0020FDF7E1FD0020FDF7DEFDF02007
:1037F000FDF7D2FD0020FDF7D8FD5020FDF7D5FDE7
:103800000020FDF7D2FD0020FDF7CFFD0020FDF7E1
:10381000CCFDF320FDF7C0FD0020FDF7C6FDF9202B
:10382000FDF7BAFD0620FDF7C0FD1020FDF7BDFD38
:103830002920FDF7BAFD0020FDF7B7FD3A20FDF77E
:10384000ABFD5520FDF7B1FD1120FDF7A5FD64206E
:1038500007F073FF2920FDF79FFD3520FDF79CFD44
:103860000020FDF7A2FD5120FDF796FDFF20FDF79A
:103870009CFD5320FDF790FD2C20FDF796FD552073
:10388000FDF78AFD8220FDF790FD2C20FDF784FDD9
:1038900002F0E9B8FE48808845F2105188427DD197
:1038A00055214FF47040FDF792FDAA214FF201001F
:1038B000FDF78DFD52214FF20200FDF788FD082132
:1038C0004FF20300FDF783FD01214FF20400FDF7E5
:1038D0007EFD0D214FF43040FDF779FD0D214BF2B7
:1038E0000100FDF774FD0D214BF20200FDF76FFDA5
:1038F00034214FF43640FDF76AFD34214BF201606C
:10390000FDF765FD34214BF20260FDF760FD0D21EE
:103910004FF43140FDF75BFD0D214BF20110FDF737
:1039200056FD0D214BF20210FDF751FD34214FF4ED
:103930003740FDF74CFD34214BF20170FDF747FD98
:1039400034214BF20270FDF742FD00214FF432406A
:10395000FDF73DFD00214BF20120FDF738FD002170
:103960004BF20220FDF733FD24214FF43840FDF7E0
:103970002EFD24214BF60100FDF729FD24214BF6F5
:103980000200FDF724FD01214FF43F40FDF71FFD2C
:103990000F214FF43340FDF71AFD00E0FDE30F2146
:1039A0004BF20130FDF713FD0F214BF20230FDF712
:1039B0000EFD34214FF43940FDF709FD34214BF65B
:1039C0000110FDF704FD34214BF60210FDF7FFFC5A
:1039D00008214FF43540FDF7FAFC08214BF2015065
:1039E000FDF7F5FC08214BF20250FDF7F0FC032136
:1039F0004FF44240FDF7EBFC24214FF43A40FDF731
:103A0000E6FC24214BF60120FDF7E1FC24214BF6D6
:103A10000220FDF7DCFC00214FF43C40FDF7D7FC11
:103A200078214BF60140FDF7D2FC00214BF6024015
:103A3000FDF7CDFC00214FF43D40FDF7C8FC782197
:103A40004BF60150FDF7C3FC00214BF60250FDF789
:103A5000BEFC00214FF43E40FDF7B9FC64214BF65B
:103A60000160FDF7B4FC00214FF45140FDF7AFFCBD
:103A700033214DF20110FDF7AAFC00214DF2021096
:103A8000FDF7A5FC34214DF20310FDF7A0FC002149
:103A90004DF20410FDF79BFC3A214DF20510FDF7A5
:103AA00096FC00214DF20610FDF791FC4A214DF2E3
:103AB0000710FDF78CFC00214DF20810FDF787FC84
:103AC0005C214DF20910FDF782FC00214DF20A1035
:103AD000FDF77DFC81214DF20B10FDF778FC0021F4
:103AE0004DF20C10FDF773FCA6214DF20D10FDF701
:103AF0006EFC00214DF20E10FDF769FCE5214DF240
:103B00000F10FDF764FC01214DF21010FDF75FFC72
:103B100013214DF21110FDF75AFC01214DF2121044
:103B2000FDF755FC54214DF21310FDF750FC012117
:103B30004DF21410FDF74BFC82214DF21510FDF7EC
:103B400046FC01214DF21610FDF741FCCA214DF251
:103B50001710FDF73CFC02214DF21810FDF737FC61
:103B600000214DF21910FDF732FC02214DF21A101E
:103B7000FDF72DFC01214DF21B10FDF728FC022161
:103B80004DF21C10FDF723FC34214DF21D10FDF702
:103B90001EFC02214DF21E10FDF719FC67214DF2AB
:103BA0001F10FDF714FC02214DF22010FDF70FFC51
:103BB00084214DF22110FDF70AFC02214DF2221062
:103BC000FDF705FCA4214DF22310FDF700FC0221B6
:103BD0004DF22410FDF7FBFBB7214DF22510FDF748
:103BE000F6FB02214DF22610FDF7F1FBCF214DF23D
:103BF0002710FDF7ECFB02214DF22810FDF7E7FB43
:103C0000DE214DF22910FDF7E2FB02214DF22A10D0
:103C1000FDF7DDFBF2214DF22B10FDF7D8FB022161
:103C20004DF22C10FDF7D3FBFE214DF22D10FDF7C8
:103C3000CEFB03214DF22E10FDF7C9FB10214DF2F2
:103C40002F10FDF7C4FB03214DF23010FDF7BFFB31
:103C500033214DF23110FDF7BAFB03214DF2321042
:103C6000FDF7B5FB6D214DF23310FDF7B0FB0021E0
:103C70004FF45240FDF7ABFB33214DF20120FDF72D
:103C8000A6FB00214DF20220FDF7A1FB342101E04B
:103C9000201B00204DF20320FDF799FB00214DF27F
:103CA0000420FDF794FB3A214DF20520FDF78FFB30
:103CB00000214DF20620FDF78AFB4A214DF2072034
:103CC000FDF785FB00214DF20820FDF780FB5C210C
:103CD0004DF20920FDF77BFB00214DF20A20FDF794
:103CE00076FB81214DF20B20FDF771FB00214DF297
:103CF0000C20FDF76CFBA6214DF20D20FDF767FBB4
:103D000000214DF20E20FDF762FBE5214DF20F2060
:103D1000FDF75DFB01214DF21020FDF758FB13214B
:103D20004DF21120FDF753FB01214DF21220FDF75A
:103D30004EFB54214DF21320FDF749FB01214DF2BA
:103D40001420FDF744FB82214DF21520FDF73FFBC7
:103D500001214DF21620FDF73AFBCA214DF2172042
:103D6000FDF735FB02214DF21820FDF730FB002155
:103D70004DF21920FDF72BFB02214DF21A20FDF721
:103D800026FB01214DF21B20FDF721FB02214DF204
:103D90001C20FDF71CFB34214DF21D20FDF717FB05
:103DA00002214DF21E20FDF712FB67214DF21F206C
:103DB000FDF70DFB02214DF22020FDF708FB8421C9
:103DC0004DF22120FDF703FB02214DF22220FDF7E9
:103DD000FEFAA4214DF22320FDF7F9FA02214DF25B
:103DE0002420FDF7F4FAB7214DF22520FDF7EFFA74
:103DF00002214DF22620FDF7EAFACF214DF22720CD
:103E0000FDF7E5FA02214DF22820FDF7E0FADE2168
:103E10004DF22920FDF7DBFA02214DF22A20FDF7B1
:103E2000D6FAF2214DF22B20FDF7D1FA02214DF204
:103E30002C20FDF7CCFAFE214DF22D20FDF7C7FA1C
:103E400003214DF22E20FDF7C2FA10214DF22F2052
:103E5000FDF7BDFA03214DF23020FDF7B8FA33210A
:103E60004DF23120FDF7B3FA03214DF23220FDF778
:103E7000AEFA6D214DF23320FDF7A9FA00214FF47F
:103E80005340FDF7A4FA33214DF20130FDF79FFABC
:103E900000214DF20230FDF79AFA34214DF2033041
:103EA000FDF795FA00214DF20430FDF790FA3A2122
:103EB0004DF20530FDF78BFA00214DF20630FDF78B
:103EC00086FA4A214DF20730FDF781FA00214DF2C2
:103ED0000830FDF77CFA5C214DF20930FDF777FAE6
:103EE00000214DF20A30FDF772FA81214DF20B30BC
:103EF000FDF76DFA00214DF20C30FDF768FAA621AE
:103F00004DF20D30FDF763FA00214DF20E30FDF752
:103F10005EFAE5214DF20F30FDF759FA01214DF21D
:103F20001030FDF754FA13214DF21130FDF74FFA1E
:103F300001214DF21230FDF74AFA54214DF21330AF
:103F4000FDF745FA01214DF21430FDF740FA8221C8
:103F50004DF21530FDF73BFA01214DF21630FDF719
:103F600036FACA214DF21730FDF731FA02214DF22F
:103F70001830FDF72CFA00214DF21930FDF727FA21
:103F800002214DF21A30FDF722FA01214DF21B30C9
:103F9000FDF71DFA02214DF21C30FDF718FA34210D
:103FA0004DF21D30FDF713FA02214DF21E30FDF7E0
:103FB0000EFA67214DF21F30FDF709FA02214DF28A
:103FC0002030FDF704FA84214DF22130FDF7FFF98E
:103FD00002214DF22230FDF7FAF9A4214DF22330EF
:103FE000FDF7F5F902214DF22430FDF7F0F9B72184
:103FF0004DF22530FDF7EBF902214DF22630FDF7A9
:10400000E6F9CF214DF22730FDF7E1F902214DF21B
:104010002830FDF7DCF9DE214DF22930FDF7D7F924
:1040200002214DF22A30FDF7D2F9F2214DF22B3068
:10403000FDF7CDF902214DF22C30FDF7C8F9FE2134
:104040004DF22D30FDF7C3F903214DF22E30FDF76F
:10405000BEF910214DF22F30FDF7B9F903214DF2D1
:104060003030FDF7B4F933214DF23130FDF7AFF9BF
:1040700003214DF23230FDF7AAF96D214DF23330B4
:10408000FDF7A5F900214FF45440FDF7A0F93321C5
:104090004DF20140FDF79BF900214DF20240FDF782
:1040A00096F934214DF20340FDF791F900214DF2CC
:1040B0000440FDF78CF93A214DF20540FDF787F9F0
:1040C00000214DF20640FDF782F94A214DF20740EA
:1040D000FDF77DF900214DF20840FDF778F95C21EC
:1040E0004DF20940FDF773F900214DF20A40FDF74A
:1040F0006EF981214DF20B40FDF769F900214DF277
:104100000C40FDF764F9A6214DF20D40FDF75FF973
:1041100000214DF20E40FDF75AF9E5214DF20F4016
:10412000FDF755F901214DF21040FDF750F913212B
:104130004DF21140FDF74BF901214DF21240FDF710
:1041400046F954214DF21340FDF741F901214DF29A
:104150001440FDF73CF982214DF21540FDF737F987
:1041600001214DF21640FDF732F9CA214DF21740F8
:10417000FDF72DF902214DF21840FDF728F9002135
:104180004DF21940FDF723F902214DF21A40FDF7D7
:104190001EF901214DF21B4000E006E3FDF717F97F
:1041A00002214DF21C40FDF712F934214DF21D4061
:1041B000FDF70DF902214DF21E40FDF708F96721C8
:1041C0004DF21F40FDF703F902214DF22040FDF7AB
:1041D000FEF884214DF22140FDF7F9F802214DF25D
:1041E0002240FDF7F4F8A4214DF22340FDF7EFF84B
:1041F00002214DF22440FDF7EAF8B7214DF22540A7
:10420000FDF7E5F802214DF22640FDF7E0F8CF2159
:104210004DF22740FDF7DBF802214DF22840FDF773
:10422000D6F8DE214DF22940FDF7D1F802214DF2FA
:104230002A40FDF7CCF8F2214DF22B40FDF7C7F8EC
:1042400002214DF22C40FDF7C2F8FE214DF22D4027
:10425000FDF7BDF803214DF22E40FDF7B8F810210F
:104260004DF22F40FDF7B3F803214DF23040FDF73A
:10427000AEF833214DF23140FDF7A9F803214DF29C
:104280003240FDF7A4F86D214DF23340FDF79FF861
:1042900000214FF45540FDF79AF833214DF20150BB
:1042A000FDF795F800214DF20250FDF790F834210A
:1042B0004DF20350FDF78BF800214DF20450FDF74D
:1042C00086F83A214DF20550FDF781F800214DF2B4
:1042D0000650FDF77CF84A214DF20750FDF777F8BC
:1042E00000214DF20850FDF772F85C214DF20950A3
:1042F000FDF76DF800214DF20A50FDF768F88121B5
:104300004DF20B50FDF763F800214DF20C50FDF714
:104310005EF8A6214DF20D50FDF759F800214DF23F
:104320000E50FDF754F8E5214DF20F50FDF74FF810
:1043300001214DF21050FDF74AF813214DF21150B2
:10434000FDF745F801214DF21250FDF740F85421D8
:104350004DF21350FDF73BF801214DF21450FDF7DB
:1043600036F882214DF21550FDF731F801214DF25A
:104370001650FDF72CF8CA214DF21750FDF727F81B
:1043800002214DF21850FDF722F800214DF219508C
:10439000FDF71DF802214DF21A50FDF718F8012122
:1043A0004DF21B50FDF713F802214DF21C50FDF7A2
:1043B0000EF834214DF21D50FDF709F802214DF29F
:1043C0001E50FDF704F867214DF21F50FCF7FFFF68
:1043D00002214DF22050FCF7FAFF84214DF22150CA
:1043E000FCF7F5FF02214DF22250FCF7F0FFA4216B
:1043F0004DF22350FCF7EBFF02214DF22450FCF765
:10440000E6FFB7214DF22550FCF7E1FF02214DF206
:104410002650FCF7DCFFCF214DF22750FCF7D7FFE9
:1044200002214DF22850FCF7D2FFDE214DF2295037
:10443000FCF7CDFF02214DF22A50FCF7C8FFF22114
:104440004DF22B50FCF7C3FF02214DF22C50FCF72C
:10445000BEFFFE214DF22D50FCF7B9FF03214DF2B6
:104460002E50FCF7B4FF10214DF22F50FCF7AFFF98
:1044700003214DF23050FCF7AAFF33214DF23150A9
:10448000FCF7A5FF03214DF23250FCF7A0FF6D2190
:104490004DF23350FCF79BFF00214FF45640FCF7E0
:1044A00096FF33214DF20160FCF791FF00214DF2A0
:1044B0000260FCF78CFF34214DF20360FCF787FFAC
:1044C00000214DF20460FCF782FF3A214DF20560B5
:1044D000FCF77DFF00214DF20660FCF778FF4A21D2
:1044E0004DF20760FCF773FF00214DF20860FCF706
:1044F0006EFF5C214DF20960FCF769FF00214DF26F
:104500000A60FCF764FF81214DF20B60FCF75FFF4E
:1045100000214DF20C60FCF75AFFA6214DF20D6010
:10452000FCF755FF00214DF20E60FCF750FFE5212E
:104530004DF20F60FCF74BFF01214DF21060FCF7CC
:1045400046FF13214DF21160FCF741FF01214DF2AE
:104550001260FCF73CFF54214DF21360FCF737FF6B
:1045600001214DF21460FCF732FF82214DF21560FB
:10457000FCF72DFF01214DF21660FCF728FFCA2140
:104580004DF21760FCF723FF02214DF21860FCF793
:104590001EFF00214DF21960FCF719FF02214DF2B8
:1045A0001A60FCF714FF01214DF21B60FCF70FFFAE
:1045B00002214DF21C60FCF70AFF34214DF21D6010
:1045C000FCF705FF02214DF21E60FCF700FF67219A
:1045D0004DF21F60FCF7FBFE02214DF22060FCF75C
:1045E000F6FE84214DF22160FCF7F1FE02214DF22E
:1045F0002260FCF7ECFEA4214DF22360FCF7E7FEFD
:1046000002214DF22460FCF7E2FEB7214DF2256055
:10461000FCF7DDFE02214DF22660FCF7D8FECF212B
:104620004DF22760FCF7D3FE02214DF22860FCF723
:10463000CEFEDE214DF22960FCF7C9FE02214DF2CB
:104640002A60FCF7C4FEF2214DF22B60FCF7BFFE9E
:1046500002214DF22C60FCF7BAFEFE214DF22D60D6
:10466000FCF7B5FE03214DF22E60FCF7B0FE1021E1
:104670004DF22F60FCF7ABFE03214DF23060FCF7EA
:10468000A6FE33214DF23160FCF7A1FE03214DF26D
:104690003260FCF79CFE6D214DF23360FCF797FE13
:1046A00055214FF47040FCF792FEAA214FF2010011
:1046B000FCF78DFE52214FF20200FCF788FE082124
:1046C0004FF20300FCF783FE00214FF20400FCF7D9
:1046D0007EFECC214FF43140FCF779FE00214BF2F5
:1046E0000110FCF774FE05214FF43640FCF76FFE15
:1046F00070214FF43740FCF76AFE70214BF20170D5
:10470000FCF765FE01214FF43840FCF760FE032101
:104710004BF60100FCF75BFE03214BF60200FCF7B1
:1047200056FE03214BF60300FCF751FE02214FF425
:104730003C40FCF74CFE00214BF60140FCF747FEE5
:1047400000214BF60240FCF742FED0214FF44940D5
:10475000FCF73DFE02214CF60110FCF738FE50211B
:104760004CF60210FCF733FE50214CF60310FCF718
:104770002EFE50214CF60410FCF729FE00214FF4C8
:104780005450FCF724FE55214FF46850FCF71FFEEF
:104790004FF48850FCF700FE782006F0A4FF4FF499
:1047A0002450FCF7F9FD01F05EB9FE48808849F21B
:1047B000253188427ED147F6F001E520FCF707FE5F
:1047C0004FF480710120FCF702FE4FF4E0610220FB
:1047D000FCF7FDFD41F230010320FCF7F8FD00215C
:1047E0000420FCF7F4FD40F202210820FCF7EFFD65
:1047F00000210920FCF7EBFD00210A20FCF7E7FD72
:1048000000210C20FCF7E3FD00210D20FCF7DFFD6B
:1048100000210F20FCF7DBFD00211020FCF7D7FD65
:1048200007211120FCF7D3FD00211220FCF7CFFD5A
:1048300000211320FCF7CBFD00210720FCF7C7FD6A
:1048400041F290611020FCF7C2FD40F227211120B7
:10485000FCF7BDFD9D211220FCF7B9FD4FF4C851B6
:104860001320FCF7B4FD25212920FCF7B0FD0D2114
:104870002B20FCF7ACFD07213020FCF7A8FD40F20F
:1048800003313120FCF7A3FD03213220FCF79FFD0B
:1048900040F206213520FCF79AFD08213620FCF76E
:1048A00096FD40F206413720FCF791FD4FF441712F
:1048B000382000E057E0FCF78AFD07213920FCF79B
:1048C00086FD40F202613C20FCF781FD08213D207D
:1048D000FCF77DFD00215020FCF779FDEF215120F0
:1048E000FCF775FD00215220FCF771FD40F23F11ED
:1048F0005320FCF76CFD4FF427416020FCF767FD67
:1049000001216120FCF763FD00216A20FCF75FFDB7
:1049100000218020FCF75BFD00218120FCF757FD82
:1049200000218220FCF753FD00218320FCF74FFD7E
:1049300000218420FCF74BFD00218520FCF747FD7A
:1049400010219020FCF743FD4FF4C0619220FCF74A
:104950003EFD40F233110720FCF739FD22210020F3
:10496000FCF735FD1FE78F48808849F228318842DF
:104970007ED141F28F01EC20FCF729FD41F2342178
:10498000EF20FCF724FD4FF480710120FCF71FFDA0
:104990004FF4E0610220FCF71AFD41F230010320E0
:1049A000FCF715FD00210420FCF711FD40F2022167
:1049B0000820FCF70CFD00210920FCF708FD002170
:1049C0000A20FCF704FD01210C20FCF700FD00216A
:1049D0000D20FCF7FCFC00210F20FCF7F8FC002167
:1049E0001020FCF7F4FC07211120FCF7F0FC00215B
:1049F0001220FCF7ECFC00211320FCF7E8FC01215D
:104A00000720FCF7E4FC322006F097FE41F29041CB
:104A10001020FCF7DCFC40F227211120FCF7D7FC2A
:104A2000322006F08AFE8A211220FCF7D0FC3220C8
:104A300006F083FE4FF4D0511320FCF7C8FC06218A
:104A40002920FCF7C4FC0D212B20FCF7C0FC3220F0
:104A500006F073FE00212020FCF7B9FC0021212084
:104A6000FCF7B5FC322006F068FE0021302000E0A3
:104A700074E0FCF7ACFC40F204613120FCF7A7FCC9
:104A800040F205313220FCF7A2FC00213520FCF772
:104A90009EFC40F609413620FCF799FC4FF4017169
:104AA0003720FCF794FC40F201313820FCF78FFCF2
:104AB00040F207713920FCF78AFC00213C20FCF70A
:104AC00086FC40F60A213D20FCF781FC322006F0EE
:104AD00034FE00215020FCF77AFCEF215120FCF736
:104AE00076FC00215220FCF772FC40F23F1153206B
:104AF000FCF76DFC4FF427416020FCF768FC0121B6
:104B00006120FCF764FC00216A20FCF760FC0021B6
:104B10008020FCF75CFC00218120FCF758FC002180
:104B20008220FCF754FC00218320FCF750FC00217C
:104B30008420FCF74CFC00218520FCF748FC102168
:104B40009020FCF744FC4FF4C0619220FCF73FFC3E
:104B500040F233110720FCF73AFC24E61148808824
:104B600049F2203188427DD100210846FCF72FFC14
:104B70004FF480710120FCF72AFC4FF4E061022021
:104B8000FCF725FC41F230010320FCF720FC00215A
:104B90000420FCF71CFC40F202210820FCF717FC63
:104BA000002101E0201B00200920FCF710FC00215F
:104BB0000A20FCF70CFC01210C20FCF708FC00216A
:104BC0000D20FCF704FC00210F20FCF700FC322034
:104BD00006F0B3FD40F201110720FCF7F8FB32208C
:104BE00006F0ABFD4FF486511020FCF7F0FB0721D7
:104BF0001120FCF7ECFB4FF488711220FCF7E7FB67
:104C00004FF430611320FCF7E2FB00212920FCF770
:104C1000DEFB44F210012B20FCF7D9FB00215020D1
:104C2000FCF7D5FBEF215120FCF7D1FB00215220EE
:104C3000FCF7CDFB40F23F115320FCF7C8FB4FF4CB
:104C40001C516020FCF7C3FB01216120FCF7BFFB76
:104C500000216A20FCF7BBFB00218020FCF7B7FB9A
:104C6000002100E031E08120FCF7B1FB002182202F
:104C7000FCF7ADFB00218320FCF7A9FB0021842079
:104C8000FCF7A5FB00218520FCF7A1FB102190205B
:104C9000FCF79DFB00219220FCF799FB012193205A
:104CA000FCF795FB4FF488719520FCF790FB0021F1
:104CB0009720FCF78CFB00219820FCF788FB40F242
:104CC00073110720FCF783FB6DE5FE48808849F2ED
:104CD000313188427DD141F21401E720FCF777FBA6
:104CE0004FF480710120FCF772FB4FF40071022039
:104CF000FCF76DFB41F238010320FCF768FB40F242
:104D000002210820FCF763FB00210920FCF75FFB70
:104D100000210A20FCF75BFB00210C20FCF757FB6D
:104D200000210D20FCF753FB00210F20FCF74FFB67
:104D300000211020FCF74BFB07211120FCF747FB5B
:104D400000211220FCF743FB00211320FCF73FFB5E
:104D5000C82006F0F2FC41F290611020FCF737FB0E
:104D600040F227211120FCF732FB322006F0E5FC4F
:104D70000C211220FCF72BFB322006F0DEFC4FF456
:104D800000611320FCF723FB11212920FCF71FFBF6
:104D90000B212B20FCF71BFB322006F0CEFC002160
:104DA0002020FCF714FB40F23F112120FCF70FFB01
:104DB00000213020FCF70BFB4FF483713120FCF70E
:104DC00006FB00213220FCF702FB4FF40171352075
:104DD00000E064E0FCF7FBFA41F20A613620FCF7E0
:104DE000F6FA40F207713720FCF7F1FA4FF48371BD
:104DF0003820FCF7ECFA40F207713920FCF7E7FAAB
:104E000040F202413C20FCF7E2FA40F60F413D201F
:104E1000FCF7DDFA00215020FCF7D9FAEF215120F0
:104E2000FCF7D5FA00215220FCF7D1FA40F23F11ED
:104E30005320FCF7CCFA4FF41C516020FCF7C7FA62
:104E400001216120FCF7C3FA00216A20FCF7BFFAB8
:104E500000218020FCF7BBFA00218120FCF7B7FA83
:104E600000218220FCF7B3FA00218320FCF7AFFA7F
:104E700000218420FCF7ABFA00218520FCF7A7FA7B
:104E800010219020FCF7A3FA4FF4C0619220FCF7A8
:104E90009EFA40F233110720FCF799FA83E489481F
:104EA000808845F2084188427ED14FF4807101200C
:104EB000FCF78DFA4FF4E0610220FCF788FA41F22A
:104EC00030010320FCF783FA00210420FCF77FFA6D
:104ED00040F207210820FCF77AFA00210920FCF7AC
:104EE00076FA00210A20FCF772FA00210C20FCF768
:104EF0006EFA00210D20FCF76AFA00210F20FCF762
:104F000066FA142006F019FC41F2B0611020FCF79B
:104F10005EFA01211120FCF75AFA01211720FCF753
:104F200056FA4FF49C711220FCF751FA4FF40061CD
:104F30001320FCF74CFA09212920FCF748FA092133
:104F40002A20FCF744FA0021A420FCF740FA0021B3
:104F50005020FCF73CFAEF215120FCF738FA0021F1
:104F60005220FCF734FA40F23F115320FCF72FFA9D
:104F70004FF41C516020FCF72AFA01216120FCF754
:104F800026FA00216A20FCF722FA00218020FCF793
:104F90001EFA00218120FCF71AFA00218220FCF77A
:104FA00016FA0021832000E023E0FCF710FA00212C
:104FB0008420FCF70CFA00218520FCF708FA132165
:104FC0009020FCF704FA00219220FCF700FA03215C
:104FD0009320FCF7FCF94FF488719520FCF7F7F962
:104FE00040F273110720FCF7F2F9322006F0A5FB1E
:104FF000B8E43448808841F2055188427ED10021CE
:105000000720FCF7E4F9322006F097FB4FF48E718D
:105010001220FCF7DCF90121A420FCF7D8F90F21BC
:105020000820FCF7D4F908210A20FCF7D0F9082160
:105030000D20FCF7CCF940F207713020FCF7C7F9DE
:1050400007213120FCF7C3F940F203613220FCF75D
:10505000BEF94FF4E0613320FCF7B9F940F20221C8
:105060003420FCF7B4F902213520FCF7B0F941F601
:105070000F713620FCF7ABF940F207713720FCF7CF
:10508000A6F900213820FCF7A2F900213920FCF70D
:105090009EF940F207713A20FCF799F900213B2074
:1050A000FCF795F907213C20FCF791F900213D2000
:1050B000FCF78DF9322006F040FB01210720FCF7B8
:1050C00086F901E0201B002001211720FCF77FF961
:1050D000322006F032FB4FF4BD511020FCF777F977
:1050E00040F217211120FCF772F94FF48F71122052
:1050F000FCF76DF94FF47061132000E097E0FCF7C6
:1051000066F900212A20FCF762F90A212920FCF720
:105110005EF94FF49F711220FCF759F900215020DD
:10512000FCF755F9EF215120FCF751F900215220ED
:10513000FCF74DF940F23F115320FCF748F94FF4CA
:105140001C516020FCF743F901216120FCF73FF975
:1051500000216A20FCF73BF900218020FCF737F999
:1051600000218120FCF733F900218220FCF72FF980
:1051700000218320FCF72BF900218420FCF727F97C
:1051800000218520FCF723F913219020FCF71FF95B
:105190004FF440719220FCF71AF905219320FCF797
:1051A00016F900219520FCF712F900219720FCF751
:1051B0000EF900219820FCF70AF94FF480710120C4
:1051C000FCF705F94FF4E0610220FCF700F941F229
:1051D00038010320FCF7FBF800210420FCF7F7F866
:1051E00000210C20FCF7F3F800210F20FCF7EFF86A
:1051F00000212020FCF7EBF800212120FCF7E7F844
:1052000021210720FCF7E3F8142006F096FA61212B
:105210000720FCF7DCF8142006F08FFA40F2731137
:105220000720FCF7D4F8142006F087FA95E4FE482E
:1052300080884BF2055188427ED100210846FCF758
:10524000C6F800210846FCF7C2F800210846FCF722
:10525000BEF800210846FCF7BAF80121A420FCF7AB
:10526000B6F8142006F069FA4FF41C516020FCF7E0
:10527000AEF840F202210820FCF7A9F84FF40571BE
:105280003020FCF7A4F843F215713120FCF79FF8A9
:1052900040F204613220FCF79AF840F616613320A0
:1052A000FCF795F842F211213420FCF790F84FF406
:1052B000A8513520FCF78BF848F207513620FCF74F
:1052C00086F841F207413720FCF781F841F20341AB
:1052D0003820FCF77CF820213920FCF778F81A21D7
:1052E0009020FCF774F800211020FCF770F80721DB
:1052F0001120FCF76CF800211220FCF768F800215F
:105300001320FCF764F8142006F017FA4FF4E66156
:105310001020FCF75CF840F237111120FCF757F829
:10532000142006F00AFA4FF4DC711220FCF74FF853
:10533000142006F002FA00E083E04FF470611320BD
:10534000FCF745F880212A20FCF741F84821292064
:10535000FCF73DF8142006F0F0F94FF480710120BD
:10536000FCF735F84FF4E0610220FCF730F841F229
:1053700038010320FCF72BF840F202210820FCF74B
:1053800026F800210A20FCF722F800210C20FCF767
:105390001EF800210D20FCF71AF830210E20FCF732
:1053A00016F800215020FCF712F8EF215120FCF7ED
:1053B0000EF800215220FCF70AF840F23F1153206A
:1053C000FCF705F84FF41C516020FCF700F80121B0
:1053D0006120FBF7FCFF00216A20FBF7F8FF112199
:1053E0009020FBF7F4FF4FF4C0619220FBF7EFFF32
:1053F00040F202419320FBF7EAFF02219420FBF7E1
:10540000E6FF142006F099F901210720FBF7DFFFE2
:10541000142006F092F961210720FBF7D8FF40F233
:1054200073110720FBF7D3FF00212020FBF7CFFFEC
:1054300000212120FBF7CBFF22210020FBF7C7FF33
:1054400011E3794880884CF2055188427ED10021D1
:105450000846FBF7BCFF00210846FBF7B8FF142005
:1054600006F06BF900210846FBF7B1FF0021084662
:10547000FBF7ADFF00210846FBF7A9FF0021084616
:10548000FBF7A5FF0121A420FBF7A1FF142006F0E4
:1054900054F94FF41C516020FBF799FF40F60601C8
:1054A0000820FBF794FF40F203713020FBF78FFFD9
:1054B00001213120FBF78BFF04213220FBF787FF0E
:1054C0004FF481713320FBF782FF4FF44071342099
:1054D000FBF77DFF40F203113520FBF778FF1F211A
:1054E0003620FBF774FF40F203713720FBF76FFFA4
:1054F00001213820FBF76BFF04213920FBF767FF00
:1055000015219020FBF763FF4FF482611020FBF719
:105510005EFF40F247211120FBF759FF4FF4DE7187
:105520001220FBF754FF4FF460611320FBF74FFF8D
:10553000782006F002F94FF480710120FBF747FF55
:105540004FF400710220FBF742FF00E050E041F20F
:1055500030010320FBF73BFF08210A20FBF737FF50
:1055600000210C20FBF733FF20210E20FBF72FFF3B
:1055700000210F20FBF72BFF00212020FBF727FF46
:1055800000212120FBF723FF3D212A20FBF71FFFED
:10559000142006F0D2F82D212920FBF718FF002156
:1055A0005020FBF714FF4DF2EF015120FBF70FFFE6
:1055B00000215220FBF70BFF40F23F115320FBF775
:1055C00006FF00216120FBF702FF00216A20FBF7A4
:1055D000FEFE4FF440719220FBF7F9FE0521932067
:1055E000FBF7F5FE4FF480710720FBF7F0FE3AE27F
:1055F0000D48808844F2315188427CD1012100203D
:10560000FBF7E5FE0A2006F098F841F22861102029
:10561000FBF7DDFE0E211220FBF7D9FE40F6392103
:105620001320FBF7D4FE01E0201B00200A2006F027
:1056300084F840211120FBF7CAFE50211520FBF70A
:10564000C6FE0A2006F079F81E211220FBF7BFFEE5
:105650000A2006F072F84FF4B1511020FBF7B7FEA4
:1056600042F639211320FBF7B2FE0A2006F065F856
:105670004FF480710120FBF7AAFE4FF44071022025
:10568000FBF7A5FE41F238010320FBF7A0FE40F234
:1056900002210820FBF79BFE08210A20FBF797FE5A
:1056A00000213020FBF793FE40F202413120FBF74E
:1056B0008EFE4FF483713220FBF789FE40F20351D6
:1056C0003320FBF784FE4FF482713420FBF77FFE1A
:1056D00040F201313520FBF77AFE40F207713620A7
:1056E000FBF775FE40F205313720FBF770FE4FF4F3
:1056F0000271382000E040E0FBF769FE40F60B71D4
:105700003920FBF764FE02214120FBF760FE4FF4D5
:105710001C516020FBF75BFE01216120FBF757FE67
:105720004FF404719020FBF752FE4FF485719220E4
:10573000FBF74DFE04219320FBF749FE4FF48071E7
:10574000A020FBF744FE01210720FBF740FE2121AA
:105750000720FBF73CFE23210720FBF738FE33210F
:105760000720FBF734FE40F233110720FBF72FFE32
:105770000021A020FBF72BFE75E1F748808844F25A
:10578000355188427ED130211520FBF720FE1021B3
:105790009A20FBF71CFE20211120FBF718FE43F294
:1057A00028411020FBF713FE02211220FBF70FFE09
:1057B00041F238011320FBF70AFE282005F0BDFF57
:1057C00012210846FBF703FE282005F0B6FF43F23E
:1057D00020411020FBF7FBFD43F238011320FBF7BB
:1057E000F6FD462005F0A9FF00213020FBF7EFFD74
:1057F00040F202413120FBF7EAFD40F2073132204E
:10580000FBF7E5FD4FF441713320FBF7E0FD042188
:105810003420FBF7DCFD40F201413520FBF7D7FDDA
:1058200040F207713620FBF7D2FD40F205313720F8
:10583000FBF7CDFD4FF4C2613820FBF7C8FD4FF4F4
:10584000C2613920FBF7C3FD4FF480710120FBF7E3
:10585000BEFD4FF440710220FBF7B9FD41F230016B
:105860000320FBF7B4FD40F608010820FBF7AFFD6D
:1058700008210A20FBF7ABFD4FF41C516020FBF719
:10588000A6FD00E031E001216120FBF7A0FD4FF40F
:105890009F719020FBF79BFD4FF480719220FBF7E6
:1058A00096FD4FF480719320FBF791FD4FF440512A
:1058B000A020FBF78CFD1021A320FBF788FD012120
:1058C0000720FBF784FD21210720FBF780FD232122
:1058D0000720FBF77CFD33210720FBF778FD40F222
:1058E00033110720FBF773FDBDE09B48808841F62C
:1058F00063118842F8D1E220FBF74EFD1D20FBF733
:1059000054FD0220FBF751FD0420FBF74EFD6420FF
:1059100005F0E9FEE020FBF73FFD0120FBF745FD28
:105920000A2005F00AFFE020FBF736FD0320FBF715
:105930003CFD0C2005F001FF0120FBF72DFD0A20A6
:1059400005F0FBFEE620FBF727FD2F20FBF72DFDE2
:10595000FF20FBF72AFDFF20FBF727FDB020FBF718
:105960001BFD2020FBF721FD0020FBF71EFD03207F
:10597000FBF71BFD40F21F30FBF717FD0120FBF783
:1059800014FD40F2DF10FBF710FD0020FBF70DFDCA
:10599000B420FBF701FD0420FBF707FD40F21F4098
:1059A000FBF703FD0020FBF700FD2E20FBF7FDFCBD
:1059B0001D20FBF7FAFC0020FBF7F7FC0020FBF7AB
:1059C000F4FC0020FBF7F1FCB620FBF7E5FC02201D
:1059D000FBF7EBFC4FF40370FBF7E7FC0020FBF751
:1059E000E4FC1720FBF7E1FC1520FBF7DEFC0020B0
:1059F000FBF7DBFC0020FBF7D8FCF020FBF7CCFC2E
:105A00000320FBF7D2FC2920FBF7C6FCD020FBF7D4
:105A1000C3FC0020FBF7C9FCBE20FBF7BDFC052042
:105A2000FBF7C3FCFE20FBF7C0FC0120FBF7BDFC2D
:105A30000020FBF7BAFC0020FBF7B7FC0020FBF7C7
:105A4000B4FCB820FBF7A8FC0320FBF7AEFC012058
:105A5000FBF7ABFCBA20FBF79FFC0120FBF7A5FC92
:105A60006420FCF71BF90020FCF744F901203B49B6
:105A700008600020FCF72DFB21B000BD2DE9FC4F94
:105A800005460E4617469846DDF82C9000200190FA
:105A90003148808846F60401884229D12E48807911
:105AA000012825D1AB4635462B480088C01B401E37
:105AB00086B2474628480088A0EB0B00401E1FFA1C
:105AC00080F80020244988712A2048812B20888171
:105AD00043463A4631462846CDF80090FFF7CEFFC0
